{
  "contractName": "DataTypes",
  "abi": [
    {
      "constant": true,
      "inputs": [],
      "name": "getStateVariables",
      "outputs": [
        {
          "name": "",
          "type": "uint256"
        },
        {
          "name": "",
          "type": "int256"
        },
        {
          "name": "",
          "type": "uint8"
        },
        {
          "name": "",
          "type": "bool"
        },
        {
          "name": "",
          "type": "address"
        },
        {
          "name": "",
          "type": "bytes32"
        },
        {
          "name": "",
          "type": "string"
        }
      ],
      "payable": false,
      "stateMutability": "view",
      "type": "function"
    }
  ],
  "bytecode": "0x608060405260096000557fffffffffffffffffffffffffffffffffffffffffffffffffffffffffffffffbc6001556011600260006101000a81548160ff021916908360ff1602179055506001600260016101000a81548160ff021916908315150217905550336002806101000a81548173ffffffffffffffffffffffffffffffffffffffff021916908373ffffffffffffffffffffffffffffffffffffffff1602179055507f68656c6c6f2100000000000000000000000000000000000000000000000000006003556040518060400160405280600681526020017f68656c6c6f21000000000000000000000000000000000000000000000000000081525060049080519060200190610113929190610126565b5034801561012057600080fd5b506101cb565b828054600181600116156101000203166002900490600052602060002090601f016020900481019282601f1061016757805160ff1916838001178555610195565b82800160010185558215610195579182015b82811115610194578251825591602001919060010190610179565b5b5090506101a291906101a6565b5090565b6101c891905b808211156101c45760008160009055506001016101ac565b5090565b90565b61024a806101da6000396000f3fe608060405234801561001057600080fd5b506004361061002b5760003560e01c8063dde89cf514610030575b600080fd5b610038610113565b604051808881526020018781526020018660ff1660ff168152602001851515151581526020018473ffffffffffffffffffffffffffffffffffffffff1673ffffffffffffffffffffffffffffffffffffffff16815260200183815260200180602001828103825283818151815260200191508051906020019080838360005b838110156100d25780820151818401526020810190506100b7565b50505050905090810190601f1680156100ff5780820380516001836020036101000a031916815260200191505b509850505050505050505060405180910390f35b6000806000806000806060600054600154600260009054906101000a900460ff16600260019054906101000a900460ff166002809054906101000a900473ffffffffffffffffffffffffffffffffffffffff166003546004808054600181600116156101000203166002900480601f0160208091040260200160405190810160405280929190818152602001828054600181600116156101000203166002900480156102005780601f106101d557610100808354040283529160200191610200565b820191906000526020600020905b8154815290600101906020018083116101e357829003601f168201915b5050505050905096509650965096509650965096509091929394959656fea165627a7a72305820c09d03bc20f569ce9593b0516c708c95495996159e3c78bff054a76d945fbf390029",
  "source": "pragma solidity 0.5.8;\r\n\r\n/*\r\n* @title Solidity data types\r\n* @author Michael Solomon\r\n* @notice A simply smart contract to demonstrate simple data types available in Solidity\r\n*\r\n*/\r\n\r\ncontract DataTypes {\r\n    uint x = 9;\r\n    int i = -68;\r\n    uint8 j = 17;\r\n    bool isEthereumCool = true;\r\n    address owner = msg.sender; //Ethereum address of the message sender\r\n    bytes32 bMsg = \"hello!\";\r\n    string sMsg = \"hello!\";\r\n\r\n    function getStateVariables() public view returns (uint, int, uint8, bool, address, bytes32, string memory) {\r\n        return (x, i, j, isEthereumCool, owner, bMsg, sMsg);\r\n    }\r\n} ",
  "sourcePath": "C:/Users/chris/Desktop/myEthereumProject/contracts/dataTypes.sol",
  "compiler": {
    "name": "solc",
    "version": "0.5.8+commit.23d335f2.Emscripten.clang"
  },
  "schemaVersion": "3.0.11",
  "updatedAt": "2019-06-22T13:26:02.315Z",
  "devdoc": {
    "methods": {}
  },
  "userdoc": {
    "methods": {}
  }
}